400000200000000100000000050010JOHN DOE                                          2025-12-31Y
400000200000000200000000075020JANE SMITH                                        2026-06-30Y
400000200000000300000000100030ALICE JOHNSON                                     2024-01-31N
